{
  "_format": "hh-sol-artifact-1",
  "contractName": "PoliceComplaintSystem",
  "sourceName": "contracts/PoliceComplaintSystem.sol",
  "abi": [
    {
      "anonymous": false,
      "inputs": [
        {
          "indexed": false,
          "internalType": "string",
          "name": "id",
          "type": "string"
        },
        {
          "indexed": false,
          "internalType": "string",
          "name": "ipfsHash",
          "type": "string"
        },
        {
          "indexed": false,
          "internalType": "uint256",
          "name": "timestamp",
          "type": "uint256"
        }
      ],
      "name": "ComplaintAdded",
      "type": "event"
    },
    {
      "anonymous": false,
      "inputs": [
        {
          "indexed": false,
          "internalType": "string",
          "name": "id",
          "type": "string"
        },
        {
          "indexed": false,
          "internalType": "string",
          "name": "newStatus",
          "type": "string"
        }
      ],
      "name": "StatusUpdated",
      "type": "event"
    },
    {
      "inputs": [
        {
          "internalType": "string",
          "name": "_id",
          "type": "string"
        },
        {
          "internalType": "string",
          "name": "_ipfsHash",
          "type": "string"
        }
      ],
      "name": "addComplaint",
      "outputs": [],
      "stateMutability": "nonpayable",
      "type": "function"
    },
    {
      "inputs": [
        {
          "internalType": "uint256",
          "name": "",
          "type": "uint256"
        }
      ],
      "name": "complaintIds",
      "outputs": [
        {
          "internalType": "string",
          "name": "",
          "type": "string"
        }
      ],
      "stateMutability": "view",
      "type": "function"
    },
    {
      "inputs": [
        {
          "internalType": "string",
          "name": "",
          "type": "string"
        }
      ],
      "name": "complaints",
      "outputs": [
        {
          "internalType": "string",
          "name": "id",
          "type": "string"
        },
        {
          "internalType": "string",
          "name": "ipfsHash",
          "type": "string"
        },
        {
          "internalType": "string",
          "name": "status",
          "type": "string"
        },
        {
          "internalType": "uint256",
          "name": "timestamp",
          "type": "uint256"
        }
      ],
      "stateMutability": "view",
      "type": "function"
    },
    {
      "inputs": [],
      "name": "getAllComplaintIds",
      "outputs": [
        {
          "internalType": "string[]",
          "name": "",
          "type": "string[]"
        }
      ],
      "stateMutability": "view",
      "type": "function"
    },
    {
      "inputs": [
        {
          "internalType": "string",
          "name": "_id",
          "type": "string"
        }
      ],
      "name": "getComplaint",
      "outputs": [
        {
          "components": [
            {
              "internalType": "string",
              "name": "id",
              "type": "string"
            },
            {
              "internalType": "string",
              "name": "ipfsHash",
              "type": "string"
            },
            {
              "internalType": "string",
              "name": "status",
              "type": "string"
            },
            {
              "internalType": "uint256",
              "name": "timestamp",
              "type": "uint256"
            }
          ],
          "internalType": "struct PoliceComplaintSystem.Complaint",
          "name": "",
          "type": "tuple"
        }
      ],
      "stateMutability": "view",
      "type": "function"
    },
    {
      "inputs": [
        {
          "internalType": "string",
          "name": "_id",
          "type": "string"
        },
        {
          "internalType": "string",
          "name": "_newStatus",
          "type": "string"
        }
      ],
      "name": "updateStatus",
      "outputs": [],
      "stateMutability": "nonpayable",
      "type": "function"
    }
  ],
  "bytecode": "0x608060405234801561001057600080fd5b50611366806100206000396000f3fe608060405234801561001057600080fd5b50600436106100615760003560e01c80628783631461006657806305fd4b8114610082578063347047cc146100b25780639be8df79146100ce578063cc877234146100fe578063f423c0961461011c575b600080fd5b610080600480360381019061007b9190610aad565b61014f565b005b61009c60048036038101906100979190610b25565b6102f5565b6040516100a99190610c77565b60405180910390f35b6100cc60048036038101906100c79190610aad565b6104ed565b005b6100e860048036038101906100e39190610cc5565b6105c8565b6040516100f59190610d3c565b60405180910390f35b610106610674565b6040516101139190610e20565b60405180910390f35b61013660048036038101906101319190610b25565b61074d565b6040516101469493929190610e51565b60405180910390f35b600080836040516101609190610ee7565b9081526020016040518091039020600001805461017c90610f2d565b9050146101be576040517f08c379a00000000000000000000000000000000000000000000000000000000081526004016101b590610faa565b60405180910390fd5b60405180608001604052808381526020018281526020016040518060400160405280600781526020017f50656e64696e67000000000000000000000000000000000000000000000000008152508152602001428152506000836040516102249190610ee7565b908152602001604051809103902060008201518160000190816102479190611176565b50602082015181600101908161025d9190611176565b5060408201518160020190816102739190611176565b50606082015181600301559050506001829080600181540180825580915050600190039060005260206000200160009091909190915090816102b59190611176565b507f29d08e2a5e128639cdd54e2849f53763dca49762e2ba9ef7091b844e98111efc8282426040516102e993929190611248565b60405180910390a15050565b6102fd61092b565b60008260405161030d9190610ee7565b908152602001604051809103902060405180608001604052908160008201805461033690610f2d565b80601f016020809104026020016040519081016040528092919081815260200182805461036290610f2d565b80156103af5780601f10610384576101008083540402835291602001916103af565b820191906000526020600020905b81548152906001019060200180831161039257829003601f168201915b505050505081526020016001820180546103c890610f2d565b80601f01602080910402602001604051908101604052809291908181526020018280546103f490610f2d565b80156104415780601f1061041657610100808354040283529160200191610441565b820191906000526020600020905b81548152906001019060200180831161042457829003601f168201915b5050505050815260200160028201805461045a90610f2d565b80601f016020809104026020016040519081016040528092919081815260200182805461048690610f2d565b80156104d35780601f106104a8576101008083540402835291602001916104d3565b820191906000526020600020905b8154815290600101906020018083116104b657829003601f168201915b505050505081526020016003820154815250509050919050565b600080836040516104fe9190610ee7565b9081526020016040518091039020600001805461051a90610f2d565b90500361055c576040517f08c379a0000000000000000000000000000000000000000000000000000000008152600401610553906112d9565b60405180910390fd5b8060008360405161056d9190610ee7565b9081526020016040518091039020600201908161058a9190611176565b507fb75b1fec1bc9156569ae9f72fb29c6e6727b297e191d358465fff4c09d8f7d2682826040516105bc9291906112f9565b60405180910390a15050565b600181815481106105d857600080fd5b9060005260206000200160009150905080546105f390610f2d565b80601f016020809104026020016040519081016040528092919081815260200182805461061f90610f2d565b801561066c5780601f106106415761010080835404028352916020019161066c565b820191906000526020600020905b81548152906001019060200180831161064f57829003601f168201915b505050505081565b60606001805480602002602001604051908101604052809291908181526020016000905b828210156107445783829060005260206000200180546106b790610f2d565b80601f01602080910402602001604051908101604052809291908181526020018280546106e390610f2d565b80156107305780601f1061070557610100808354040283529160200191610730565b820191906000526020600020905b81548152906001019060200180831161071357829003601f168201915b505050505081526020019060010190610698565b50505050905090565b60008180516020810182018051848252602083016020850120818352809550505050505060009150905080600001805461078690610f2d565b80601f01602080910402602001604051908101604052809291908181526020018280546107b290610f2d565b80156107ff5780601f106107d4576101008083540402835291602001916107ff565b820191906000526020600020905b8154815290600101906020018083116107e257829003601f168201915b50505050509080600101805461081490610f2d565b80601f016020809104026020016040519081016040528092919081815260200182805461084090610f2d565b801561088d5780601f106108625761010080835404028352916020019161088d565b820191906000526020600020905b81548152906001019060200180831161087057829003601f168201915b5050505050908060020180546108a290610f2d565b80601f01602080910402602001604051908101604052809291908181526020018280546108ce90610f2d565b801561091b5780601f106108f05761010080835404028352916020019161091b565b820191906000526020600020905b8154815290600101906020018083116108fe57829003601f168201915b5050505050908060030154905084565b6040518060800160405280606081526020016060815260200160608152602001600081525090565b6000604051905090565b600080fd5b600080fd5b600080fd5b600080fd5b6000601f19601f8301169050919050565b7f4e487b7100000000000000000000000000000000000000000000000000000000600052604160045260246000fd5b6109ba82610971565b810181811067ffffffffffffffff821117156109d9576109d8610982565b5b80604052505050565b60006109ec610953565b90506109f882826109b1565b919050565b600067ffffffffffffffff821115610a1857610a17610982565b5b610a2182610971565b9050602081019050919050565b82818337600083830152505050565b6000610a50610a4b846109fd565b6109e2565b905082815260208101848484011115610a6c57610a6b61096c565b5b610a77848285610a2e565b509392505050565b600082601f830112610a9457610a93610967565b5b8135610aa4848260208601610a3d565b91505092915050565b60008060408385031215610ac457610ac361095d565b5b600083013567ffffffffffffffff811115610ae257610ae1610962565b5b610aee85828601610a7f565b925050602083013567ffffffffffffffff811115610b0f57610b0e610962565b5b610b1b85828601610a7f565b9150509250929050565b600060208284031215610b3b57610b3a61095d565b5b600082013567ffffffffffffffff811115610b5957610b58610962565b5b610b6584828501610a7f565b91505092915050565b600081519050919050565b600082825260208201905092915050565b60005b83811015610ba8578082015181840152602081019050610b8d565b60008484015250505050565b6000610bbf82610b6e565b610bc98185610b79565b9350610bd9818560208601610b8a565b610be281610971565b840191505092915050565b6000819050919050565b610c0081610bed565b82525050565b60006080830160008301518482036000860152610c238282610bb4565b91505060208301518482036020860152610c3d8282610bb4565b91505060408301518482036040860152610c578282610bb4565b9150506060830151610c6c6060860182610bf7565b508091505092915050565b60006020820190508181036000830152610c918184610c06565b905092915050565b610ca281610bed565b8114610cad57600080fd5b50565b600081359050610cbf81610c99565b92915050565b600060208284031215610cdb57610cda61095d565b5b6000610ce984828501610cb0565b91505092915050565b600082825260208201905092915050565b6000610d0e82610b6e565b610d188185610cf2565b9350610d28818560208601610b8a565b610d3181610971565b840191505092915050565b60006020820190508181036000830152610d568184610d03565b905092915050565b600081519050919050565b600082825260208201905092915050565b6000819050602082019050919050565b6000610d968383610bb4565b905092915050565b6000602082019050919050565b6000610db682610d5e565b610dc08185610d69565b935083602082028501610dd285610d7a565b8060005b85811015610e0e5784840389528151610def8582610d8a565b9450610dfa83610d9e565b925060208a01995050600181019050610dd6565b50829750879550505050505092915050565b60006020820190508181036000830152610e3a8184610dab565b905092915050565b610e4b81610bed565b82525050565b60006080820190508181036000830152610e6b8187610d03565b90508181036020830152610e7f8186610d03565b90508181036040830152610e938185610d03565b9050610ea26060830184610e42565b95945050505050565b600081905092915050565b6000610ec182610b6e565b610ecb8185610eab565b9350610edb818560208601610b8a565b80840191505092915050565b6000610ef38284610eb6565b915081905092915050565b7f4e487b7100000000000000000000000000000000000000000000000000000000600052602260045260246000fd5b60006002820490506001821680610f4557607f821691505b602082108103610f5857610f57610efe565b5b50919050565b7f436f6d706c61696e7420616c7265616479206578697374730000000000000000600082015250565b6000610f94601883610cf2565b9150610f9f82610f5e565b602082019050919050565b60006020820190508181036000830152610fc381610f87565b9050919050565b60008190508160005260206000209050919050565b60006020601f8301049050919050565b600082821b905092915050565b60006008830261102c7fffffffffffffffffffffffffffffffffffffffffffffffffffffffffffffffff82610fef565b6110368683610fef565b95508019841693508086168417925050509392505050565b6000819050919050565b600061107361106e61106984610bed565b61104e565b610bed565b9050919050565b6000819050919050565b61108d83611058565b6110a16110998261107a565b848454610ffc565b825550505050565b600090565b6110b66110a9565b6110c1818484611084565b505050565b5b818110156110e5576110da6000826110ae565b6001810190506110c7565b5050565b601f82111561112a576110fb81610fca565b61110484610fdf565b81016020851015611113578190505b61112761111f85610fdf565b8301826110c6565b50505b505050565b600082821c905092915050565b600061114d6000198460080261112f565b1980831691505092915050565b6000611166838361113c565b9150826002028217905092915050565b61117f82610b6e565b67ffffffffffffffff81111561119857611197610982565b5b6111a28254610f2d565b6111ad8282856110e9565b600060209050601f8311600181146111e057600084156111ce578287015190505b6111d8858261115a565b865550611240565b601f1984166111ee86610fca565b60005b82811015611216578489015182556001820191506020850194506020810190506111f1565b86831015611233578489015161122f601f89168261113c565b8355505b6001600288020188555050505b505050505050565b600060608201905081810360008301526112628186610d03565b905081810360208301526112768185610d03565b90506112856040830184610e42565b949350505050565b7f436f6d706c61696e7420646f6573206e6f742065786973740000000000000000600082015250565b60006112c3601883610cf2565b91506112ce8261128d565b602082019050919050565b600060208201905081810360008301526112f2816112b6565b9050919050565b600060408201905081810360008301526113138185610d03565b905081810360208301526113278184610d03565b9050939250505056fea264697066735822122057d5841cc1030298859de3ec8ed2237eedf6983bf0407c6e063e8a344f05e7d864736f6c63430008130033",
  "linkReferences": {},
  "deployedLinkReferences": {}
}